:400000000080002011000000294400002944000080B500AF024A034B1B68136004F038FABC760040FA46004010B5054C237833B9044B13B10448AFF300800123237010BD07
:40004000208AFF1F0000000088680100084B10B51BB108490848AFF300800848036803B910BD074B002BFBD0BDE81040184700BF00000000248AFF1F88680100C880FF1F5E
:400080000000000080B500AF06F0B2FD4FF48072002104480DF0EEF9034B00221A7000BF80BD00BF3C8AFF1F3D8BFF1F80B582B000AF06F07BFD0346FB71FB79002B09D001
:4000C000114B1B785A1CD1B20F4A117019460F4AFB795354FB790D2B11D10D4B1A680D4B1B68194610460EF0E9F802460A4B1A60054B1B781A46054B1344054A136000BF12
:400100000837BD4680BD00BF3D8BFF1F3C8AFF1FCC80FF1F448BFF1F408BFF1F80B582B000AF7860796803480DF0ACFE00BF0837BD4680BDECC3FF1F80B596B000AF314907
:4001400031480EF0BBF878657B6D002B01D0002353E02E492C480EF0B1F878657B6D002B4AD000F00BFC386538463B6D284A20210DF0A8FC07F12003184600F05DF897F847
:400180003830002B2DD0B7F9363007F13C00214A14210DF097FC07F13C031A461E49002000F038FB07F13C033A6D19461B4801F0C1FF3B461A461A491A4800F0F1F91A4ABF
:4001C0001749184800F0ECF907F13C031A461449144800F0E5F9154A1149124800F0E0F908E01349022000F015FB3A6D11490B4801F0A0FF002300E0002318465837BD4610
:4002000080BD00BF98680100ECC3FF1F9C680100A0680100A4680100A8680100BC680100CC680100D0680100DC680100F0680100F468010020690100B0B58AB000AF78608A
:40024000002387F82130002387F82030FFF71AFF012006F049FDC82004F0D0FD022008F017FB06F039FC384806F0E4FC4FF4FA6004F0C4FD06F076FC06F0EEFC002006F027
:4002800033FD0C2008F004FB002008F0E3FA2F492F480EF023F9786233E00D21786A0DF0ABFC0346002B27D0786A0CF003FF03467B847B8C002B1FD07B8C42F20F72934207
:4002C00014D097F82030B7F922205B0007F128010B4423F8202C97F820300A2B15D897F820300133DBB287F8203005E097F821300133DBB287F82130144900200EF0EEF8F0
:4003000078627B6A002BC8D100E000BF97F8202007F108031146184600F082F803461BB2FB837B681D4607F108040FCC28606960AA60EB6003CC2861696123882B837868F0
:400340002837BD46B0BD00BFAD000000246901003C8AFF1FB0B5EEB004AF3B1D186007F12403002283F8802007F124032A4A1C4615460FCD0FC42B68238007F10803184658
:40038000FFF75AFF07F108031B7E1A4607F108035B7E134407F10802127E114607F10802B2F91620144607F1240202F181000294019100930B23194A4FF480710DF082FB0D
:4003C00007F108031B7E0B2B05D107F12403012283F880200EE007F108031B7E002B09D007F108031B7E0A2B04D807F12403022283F880203B1D1A6807F1240310461946B1
:4004000040F281131A460CF0BFFF3B1D186807F5D477BD46B0BD00BF286901003C69010090B585B000AF78600B46FB700023FB81FB781BB21946786800F03AF8FB7803F0F3
:400440000103DBB2002B25D1FB78013BDA0F13445B105B007A681344B3F900301946FB785B08DBB25B007A681344B3F900300B4418460BF0BDFF4FF000024FF080430CF02B
:4004800047F903460C46184621460CF0C7FA0346FB8107E0FB785B08DBB25B007A6813441B88FB81FB8918461437BD4690BD00BF80B584B000AF78600B467B800023FB8106
:4004C00037E00023BB8124E0B7F90C305B007A681344B3F90020B7F90C3001335B0079680B44B3F900309A420DDDB7F90C305B007A68D018B7F90C3001335B007A68134424
:40050000194600F021F8B7F90C309BB201339BB2BB81B7F90C20B7F90210B7F90E30CB1A013B9A42D0DBB7F90E309BB201339BB2FB81B7F90E20B7F90230013B9A42C0DB7E
:4005400000BF1037BD4680BD80B485B000AF786039607B681B88FB813B68B3F900207B681A803B68FA891A8000BF1437BD4680BC704700BF80B584B000AF78600923FB73B5
:4005800000F078F8786808F0FDFD0346DBB20133FB7300F07BF8FB7B18461037BD4680BD80B586B000AFF860B9607A600923FB7500F060F8B968F86808F0CEFD38613B6909
:4005C000002B08D108F0FCFB08F074FCB968F86808F0C2FD38613B69002B10D078680DF0AFFC03461A467968386908F063FF386908F0ECFC0346DBB2C3F10103FB7500F0A4
:4006000045F8FB7D18461837BD4680BD80B586B000AFF860B9607A600923FB7500F02AF81349F86808F098FD38613B69002B08D108F0C6FB08F03EFC0D49F86808F08CFD59
:4006400038613B69002B0CD07A68B968386908F00AFE386908F0BAFC0346DBB2C3F10103FB7500F013F8FB7D18461837BD4680BD7469010080B500AF06F05AFB012006F0C1
:400680005DFB08F017FC00BF80BD00BF80B500AF002006F053FB06F045FB08F091FB002006F0BEFB002006F09DFB002006F0D2FB002006F0EDFB00BF80BD00BFF0B5EBB0C1
:4006C00000AF3B1D186007F124033D4A1C4613460FCB07C4237007F12403002283F8802007F11803374A07CA03C31A8007F10C03354A07CA03C31A7007F10C031846FFF7BF
:4007000039FF07F10C03314A31491846FFF748FF07F1180107F10C030A221846FFF776FF07F10C031846FFF725FF03461A4607F1240383F8802007F1240393F88030012BF5
:4007400014D107F124038133224A1D4614460FCC28606960AA60EB6007CC28616961AA612388A278AB831346AB7717E007F124038133194A14469E4604F1200C75462646C5
:400780000FCE28606960AA60EB6010340EF1100E6445F3D17346224612781A703B1D1A6807F124031046194640F281131A460CF0EBFD3B1D186807F5D677BD46F0BD00BF6B
:4007C00078690100DC690100E8690100886901009469010098690100B869010080B500AF07F0F4FB00BF80BD80B500AF07F04EFC034603F00203002B02D1012004F0FEFA34
:4008000007F0BAFC00BF80BD80B500AF07F0CEFC00BF80BD0EB480B5ADF6140D00AF0246FB1D1A70FB1D1B78022B07D0FB1D1B78012B03D0FB1D1B78032B1DD1294800F099
:40084000C9F800F09BF803461946274800F0C2F8FB1D1B78022B03D1244800F0BBF820E0FB1D1B78012B03D1214800F0B3F818E0204800F0AFF814E0FB1D1B78002B29D14E
:400880001D4B1B79002B25D0164800F0A3F800F075F803461946144800F09CF8174800F099F807F5026207F10C031A6007F10C0307F110001B68D7F81C284FF4006110F044
:4008C000C9FC07F11003184607F006FC0C4800F081F800E000BF07F61407BD46BDE8804003B07047F4690100F8690100086A0100246A0100406A0100509CFF1F5C6A01004D
:40090000786A010084B080B500AF07F1080E8EE80F00134800F05EF800F030F803461946104800F057F8104800F054F807F108010E4800F04FF897F8883019460C4800F025
:4009400049F807F1890319460A4800F043F80A4800F040F800BFBD46BDE8804004B07047F4690100F8690100806A0100906A0100A06A0100B06A0100C06A010080B58CB062
:4009800000AF05F085FAF862FB6A1B78DBB27B60FB6A5B78DBB2BB60FB6A9B78DBB2FB60FB6A5B899BB2A3F26C73BB61FB6A1B7ADBB27B61FB6A1B79DBB23B6100237B626F
:4009C0003B1D18460CF0A8FEB862BB6A18463037BD4680BD0FB480B5ADF6080D00AF07F61403C7F80438381DD7F80438D7F810284FF4006110F02EFC3B1D184607F06CFBA4
:400A000000BF07F60807BD46BDE8804004B07047B0B59CB000AF7860012007F0BFF8012007F054FF0A2004F0E9F907F089F807F061F806F0A3FB002387F86F3034E097F866
:400A40006F30184607F096F80023A7F86C300FE0B7F86C4007F022F80246A30007F170010B4443F8682CB7F86C300133A7F86C30B7F86C300A2BEBD997F86F4007F108038A
:400A80000B21184600F0DCF90346184606F0E6FC0246A30007F170010B4443F83C2C97F86F30013387F86F3097F86F30082BC6D907F046F807F00EF806F078FB002007F0F0
:400AC0006DF8002007F002FF7B6B18460BF0A2FC19A3D3E900230BF03DFB03460C46184621460BF0C3FF0346BB66BB6B144918460CF01AF90346B96E18460CF00BF8034641
:400B00007B65FB6BB96E18460CF004F80346BB653B6C3B66012387F864307B681D4607F154040FCC0FC523682B6078687037BD46B0BD00BFAFF30080FCA9F1D24D62F03F91
:400B4000000030410000000090B59BB000AF786006F0F6FF06F0CEFF06F010FB032007F009F80023A7F866300FE0B7F8664006F095FF0246A30007F168010B4443F8602C9B
:400B8000B7F866300133A7F86630B7F866300A2BEBD907F108030B21184600F051F90346184606F05BFC0346BB65BB6D484918460CF0BAF8034618460AF050FB034644499E
:400BC00018460CF065F90346BB65012007F07EFE0A2004F013F90023A7F864300FE0B7F8644006F05BFF0246A30007F168010B4443F8602CB7F864300133A7F86430B7F873
:400C000064300A2BEBD907F108030B21184600F017F90346184606F021FC03467B6506F08FFF06F057FF06F0C1FA002007F04EFE7B6D18460BF0EEFB21A3D3E900230BF00B
:400C400067FD03460C46184621464FF00002214B0BF034FC03460C46184621460BF006FF0346FB657B6D18460BF0D4FB4FF00002194B0BF023FC03460C461846214612A3EB
:400C8000D3E900230BF044FD03460C46184621464FF00002114B0BF05DFA03460C46184621460BF0E3FE03463B667B681C4607F154030FCB84E80F0078686C37BD4690BDE8
:400CC0000000000000C0624033333333333303400000C84200408F40000024400000044084B090B587B000AF786007F12C0080E80E00BB6B18460BF08DFB23A3D3E90023DF
:400D00000BF006FD03460C46184621464FF00002214B0BF0FDFC03460C46184621460BF0A5FE03463B61BB6B18460BF073FB4FF000021A4B0BF0C2FB03460C461846214626
:400D400013A3D3E900230BF0E3FC03460C46184621464FF00002124B0BF0FCF903460C46184621460BF082FE03467B617B681C4607F108030FCB84E80F0078681C37BD4643
:400D8000BDE8904004B070470000000000C06240333333333333034000408F40000024400000044080B584B000AF786039600023FB6028E00023BB601BE0BB689B007A68DD
:400DC00013441A68BB6801339B0079680B441B689A420BDDBB689B007A68D018BB6801339B007A681344194600F016F8BB680133BB603A68FB68D31A5A1EBB689A42DCDC0E
:400E0000FB680133FB603B685A1EFB689A42D1DC00BF1037BD4680BD80B485B000AF786039607B681B68FB603B681A687B681A603B68FA681A6000BF1437BD4680BC704728
:400E400090B585B000AF786039600023FB6039687868FFF7A7FF3B6803F00103002B23D13B68013BDA0F13445B109B007A6813441A683B68D90F0B445B109B0079680B4494
:400E80001B68134418460BF0B3FA4FF000024FF080430BF03DFC03460C46184621460BF0BDFD0346FB6008E03B68DA0F13445B109B007A6813441B68FB60FB68184614372E
:400EC000BD4690BD2DE9B043EEB006AF3B1D186007F11C03002283F8802007F11C03264A1C4615460FCD0FC495E8030020600434217007F108031846FFF78AFD07F1080385
:400F00001B6818460BF086FA04460D4607F108035B6818460BF07EFA8046894607F108039B6818460BF076FA02460B4607F11C0101F18100CDE90423CDE90289CDE9004583
:400F40000E4A4FF480710CF0BDFD07F11C03012283F880203B1D1A6807F11C031046194640F281131A460CF00FFA3B1D186807F5D077BD46BDE8B083C46A0100DC6A01009D
:400F80002DE9B043EEB006AF3B1D186007F11C03002283F8802007F11C03374A1C4615460FCD0FC495E8030020600434217007F10C031846FFF7C8FD07F10C031B681846DC
:400FC0000BF028FA04460D4607F10C039B6818460BF020FA8046894607F10C03DB6818460BF018FA02460B4607F11C0101F18100CDE90423CDE90289CDE900451F4A4FF48A
:4010000080710CF05FFD07F10C031B681C4918460BF08AFE034618460AF020F90346184918460BF035FF03461A4607F10C031A6007F10C035A6807F10C031B681946104674
:401040000CF006F80346002B04D107F11C03012283F880203B1D1A6807F11C031046194640F281131A460CF08FF93B1D186807F5D077BD46BDE8B083FC6A0100146B0100AB
:401080000000C84298B500AF12E00D4BB3F900301C4607F0B9F903461A460A4B1A55084BB3F900309BB201339BB21AB2044B1A8007F0CCF90346012BE7D000BF98BD00BF1F
:4010C000488BFF1FE007002080B500AF00F032F8154B00221A70154B002283F82820134B00221A75114B00221A70114B00221A600F4B00225A600E4B00229A600C4B002276
:40110000DA600B4B00221A61094B00225A61084B0022DA61064B00229A610021402007F02DFB00BF80BD00BF490700206CECFF1F4C07002080B500AF002007F051FB0C200C
:4011400007F0FEFA002007F093F8002007F0DAFA002007F02BFB002007F06CF8002007F0A5F800BF80BD00BF80B500AF022007F0E7FA012007F034FB012007F079F864209A
:4011800003F03CFE00BF80BD80B500AF41F288320A490B4800F0A8F800F084F84FF47A7003F02CFE07F000F907F030FAFFF7C2FF044B00221A7000BF80BD00BF446B01001B
:4011C000486B01004907002080B582B000AFFFF7CBFF07F087F82C4807F006FA00F062F80023FB7100233B71FFF7C8FB38600023BB711CE000237B710EE04FF47A72234938
:40120000234800F071F80346002B02D00123FB7105E07B7901337B717B79132BEDD9FB79012B08D000F03EF8BB790133BB71BB79022BDFD900E000BFFFF7A0FB02463B68BD
:40124000D31A3B603A6813490020FFF7E3FAFB79012B0AD13B791A460F490020FFF7DAFA0E4B01221A70012309E00D490220FFF7D1FA0A4B00221A70FFF786FF00231846DB
:401280000837BD4680BD00BF85100000446B0100546B01005C6B0100706B010049070020A46B010080B500AF012006F0C3FF4FF4FA6003F0A3FD002006F0BCFF00BF80BD0D
:4012C00080B500AF064B00221A804FF48062002104480CF0CFF807F0CFF800BF80BD00BF488BFF1FE007002080B58AB000AFF860B9607A6000237B6200237B6246E00A237B
:40130000FB617A68FB69B2FBF3F3BB61FFF7D8FFF86807F0EDF87B68002B06D1FA681F490020FFF777FA012334E000233B6220E0F86903F063FDB96819480CF0BFFF78615C
:401340007B69002B12D07B6A002B06D1144BFA6814490020FFF75EFA06E07B6A5A1C104B11490120FFF756FA012313E03B6A01333B623A6ABB699A42DAD3094BFA680B49C4
:401380000220FFF747FA7B6A01337B627B6A022BB5D9002318462837BD4680BDBC6B0100E0070020E86B0100386C0100706C0100B0B5E6B000AF3B1D186007F10C03002276
:4013C00083F8802007F10C03364A07CA03C31A800233120C1A7007F10C038133324A1C4615460FCD20606160A260E36028682061AB88AA79A3821346A3750023C7F8943143
:401400003AE000F091F800F067FE0346002B02D1FFF7DAFE27E000F05FFE0346042B22D100F0B8FDC7F89001D7F89031002B03D0D7F8900102F03AFC07F10C0381331B4AC5
:401440001D4614460FCC28606960AA60EB6007CC28616961AA6107F10C03012283F88020FFF792FE0CE04FF47A7003F0C7FCD7F894310133C7F89431D7F894313B2BC0DD80
:401480003B1D1A6807F10C031046194640F281131A460BF079FF3B1D186807F5CC77BD46B0BD00BFA06C0100AC6C0100C46C010080B586B000AFF860B9607A603B60B9683F
:4014C000F8680CF0FBFE78617B69002B01D1FB687B61B8680CF034FD02467B6913447B61796878690CF0EAFE38613B69002B06D1F8680CF025FD0246FB6813443B613A694E
:401500007B69D31A1A46796938680CF047FD3A697B69D31A1A463B68134400221A70012318461837BD4680BD80B582B000AF534B1B78012B0BD1FFF721FA0246504B1A6070
:4015400000F074FC4D4B02221A70012392E04B4B1B78022B5FD10023FB712BE000F01CF9484B5B7883F00103DBB2002B07D0464B5B691A2B03DD444B5B69FF2B1ED1414B2C
:401580005B78002B0FD0404B9B68242B03DD3E4B9B68FF2B13D13C4B5B691A2B03DD3A4B5B69FF2B0BD14FF47A7003F027FCFB790133FB71FB791D2BD0D900E000BF00F0ED
:4015C0006DF80346002B13D0FFF7D8F902462C4B1B68D31A2C4A93612B4B9B691A462B490020FFF717F900F0B5F8244B03221A70FFF7C4F90246224B1B68D31AB42B08DD04
:401600001E4B00221A70FFF7BFFD21490220FFF701F900232EE0194B1B78032B29D100F0A7F80346002B11D0144B04221A70FFF7A5F90246124B1B68D31A134AD361124B8D
:40164000DB691A4613490020FFF7E4F8FFF796F902460B4B1B68D31AE62B08DD074B00221A70FFF791FD0C490220FFF7D3F8002300E0002318460837BD4680BD49070020C2
:40168000DC070020509CFF1F4C070020E06C0100086D01002C6D01004C6D010080B584B000AF20490020FFF7B5F84FF4FA621E491E48FFF719FE0346FB731D490020FFF7A3
:4016C000A9F81C4A1C490020FFF7A4F8FB7B002B23D000233B713B1D184A19491548FFF7E7FE3B1D1A4617490020FFF793F816490020FFF78FF83B1D144918460CF0DEFD76
:401700000346002B07D13B1D114918460CF0D6FD0346002B01D0012300E0002318461037BD4680BD746D0100446B0100886D0100946D0100E0070020B06D0100CC6D010044
:40174000D06D0100D46D0100F46D0100146E0100186E010080B500AF4FF47A7202490348FFF7C2FD00BF80BD446B01001C6E010080B500AF4FF4FA6205490648FFF7B4FD22
:401780000346002B01D0012300E00023184680BD2C6E0100306E010080B586B004AF154BFF225A60134BFF22DA60124BFF229A60104BFF225A610F4BFF221A610D4BFF22B8
:4017C0001A604FF4FA620C490C48FFF78DFD0C4B03930C4B02930C4B01930C4B00930C4B044A0C490C480CF0B9F9786000BF0837BD4680BD4C070020446B01003C6E010019
:40180000600700205C070020580700205407002050070020486E0100E007002080B400AF104B00221A700F4B01225A700D4B01229A700C4B0122DA700A4B01221A71094B9E
:4018400078225A71074B78229A71064B7822DA71044B78221A72034B78225A7200BFBD4680BC7047509CFF1F90B5ADF5637D00AF002387F8E83207F5217300221A7007F584
:40188000087300221A7007F5DE7300221A7007F5AC7300221A7007F1900300221A70002387F87C33002387F87033002387F86433002387F85833002387F84C3307F55F731F
:4018C000A04AA149A148FFF7F3FD07F55C739D4A9F499E48FFF7ECFD07F55973994A9D499A48FFF7E5FD07F55673964A9A499748FFF7DEFD07F55373924A98499348FFF713
:40190000D7FD974991480CF0D9FC0346002B35D007F190038B4A92498C48FFF7C9FD07F19003904918460CF0C9FC0346002B14BF01230023DBB21A468B4B1A7007F190031C
:401940008A4918460CF0BAFC0346002B14BF01230023DAB2864B1A70864B00221A7007F19003854918460CF0A9FC0346002B14BF01230023DBB21A46804B1A7007F53A73C1
:40198000704A7F497148FFF793FD07F53A73184600F006FE07F521736A4A7A496B48FFF787FD07F521731846FEF7B8FB07F5DE73644A75496548FFF77BFD07F5DE73184622
:4019C00000F0DEFE07F5AC735E4A70495F48FFF76FFD07F5AC73184601F0E0FA07F18C0207F55F736A4918460CF0B8F80346012B0ED107F18C031B68DAB2664B1A7007F124
:401A00008C031B681A4664490020FEF703FF03E062490220FEF7FEFE07F1880207F55C735B4918460CF09AF80346012B12D107F188031B68002B14BF01230023DAB2554B23
:401A40005A7007F188031B681A4655490020FEF7E1FE03E053490220FEF7DCFE07F1840207F559734A4918460CF078F80346012B1DD107F184031B68DAB2464B9A70454B75
:401A80009B7899B2484C38460723012201F0B6FC3A4623461168196092889A8007F184031B681A4641490020FEF7B4FE03E040490220FEF7AFFE07F1800207F55673344918
:401AC00018460CF04BF80346012B1DD107F180031B68DAB22F4BDA702E4BDB7899B2354C38460723012201F089FC3A4623461168196092889A8007F180031B681A462E49DB
:401B00000020FEF787FE03E02C490220FEF782FE07F17C0207F553731D4918460CF01EF80346012B4ED107F17C031B68DAB2194B1A7107F17C031B681A4621490020FEF72C
:401B400069FE43E0CC6D0100686E0100E0070020746E0100806E0100906E0100A06E0100B06E0100C06E0100E7C3FF1FC86E010051ECFF1FE6C3FF1FD86E01005AECFF1FC9
:401B8000E46E0100F06E0100006F0100086F0100186F0100509CFF1F1C6F0100386F0100546F0100706F0100E0C3FF1F8C6F0100B06F0100C49CFF1FE06F010008700100FD
:401BC0003870010085490220FEF724FE844B1B78042B40F0FD8007F10C0300221A70814B1B78002B4ED007F53A737F4918460CF065FB0346002B41D007F10C0300221A7039
:401C000007F53A7207F10C03114618460CF03AF907F53A7307F10C00744A7349FFF748FC07F1780207F53A73714918460BF096FF0346012B1DD107F178031B68DAB2684B55
:401C40005A71674B5B7999B26A4C38460723012201F0D4FB3A4623461168196092889A8007F178031B681A4663490020FEF7D2FD08E062490220FEF7CDFD03E06049022070
:401C8000FEF7C8FD5F4B1B78002B4ED007F52173554918460CF012FB0346002B41D007F10C0300221A7007F5217207F10C03114618460CF0E7F807F5217307F10C004B4AC8
:401CC0004949FFF7F5FB07F1740207F52173484918460BF043FF0346012B1DD107F174031B68DAB23E4B9A713D4B9B7999B2464C38460723012201F081FB3A4623461168BA
:401D0000196092889A8007F174031B681A463F490020FEF77FFD08E03D490220FEF77AFD03E03C490220FEF775FD3B4B1B78002B4ED007F5AC732C4918460CF0BFFA034650
:401D4000002B41D007F10C0300221A7007F5AC7207F10C03114618460CF094F807F5AC7307F10C00214A2049FFF7A2FB07F1700207F5AC731E4918460BF0F0FE0346012BE8
:401D80001DD107F170031B68DAB2154B5A72144B5B7A99B2214C38460723012201F02EFB3A4623461168196092889A8007F170031B681A461A490020FEF72CFD08E0194976
:401DC0000220FEF727FD03E017490220FEF722FD00BF07F56377BD4690BD00BF64700100509CFF1FE7C3FF1F94700100CC6D0100186F01005CECFF1F9C700100C070010079
:401E0000F070010051ECFF1F64ECFF1F1871010040710100747101005AECFF1FDC060020A0710100C8710100FC71010080B584B000AF454B1B7D002B13D14FF4FA624349BC
:401E40004348FFF751FA0346002B0AD0414B424A42494348FFF72CFB3E4A42490020FEF7D9FC394B1B78002B13D14FF4FA6237493D48FFF739FA0346002B0AD0324B364AC2
:401E800036493748FFF714FB2F4A38490020FEF7C1FC2D4B93F82830002B13D14FF4FA622A493348FFF720FA0346002B0AD0314B294A2A492A48FFF7FBFA2E4A2E49002030
:401EC000FEF7A8FC2D4B5B7883F00103DBB2002B06D04FF4FA621D492948FFF705FA09E0264B5B78002B05D04FF4FA6217492548FFF7FAF94FF4FA6214492348FFF7F4F9C2
:401F00000346002B1BD000233B713B1D124A13491348FFF7CDFA3B1D1A461C490020FEF779FC3B1D312118460BF066FE0346002B05D14FF4FA6205491548FFF7D5F900BF26
:401F40001037BD4680BD00BF6CECFF1F446B01002872010080ECFF1FCC6D0100D06D0100E00700203472010044720100507201005C72010094ECFF1F68720100509CFF1FDE
:401F800074720100A0720100BC720100C8720100D472010080B5A0B006AF444B1B78042B05D043490220FEF735FC00237AE000237B664FF4FA623F493F48FFF795F9034646
:401FC000002B6ED0002387F8443007F144033B4A3B493C48FFF76CFA0023BB6207F13C0107F1400207F1440007F12803049307F12C03039307F13003029307F13403019355
:4020000007F1380300930B462F490BF0A7FD0346072B06D1BB6A4FF4617202FB03F3BB6227E007F13C0107F1400207F1440007F12803049307F12C03039307F130030293EC
:4020400007F13403019307F1380300930B461F490BF084FD0346072B05D1BB6A1C4A02FB03F3BB6205E01B490220FEF7D3FB002318E0FB6A7B603B6BBB607B6BFB603B6C84
:402080006433BB61FB6B013B7B61BB6B3B6100237B623B1D18460BF03FFB0246BB6A13447B667B6E18466837BD4680BD49070020E0720100446B01001873010024730100E0
:4020C00028730100E00700202C730100447301007CFCFFFF5C73010080B400AF024B1B781846BD4680BC70474907002080B500AFFFF7F2FF0346002B03D006F09FFB06F080
:4021000047FA00BF80BD00BF80B500AFFFF7E4FF0346002B0BD006F097FB06F053FAFFF7DBFF0346032B02D1642002F067FE00BF80BD00BF80B584B000AFF860B9607A60B9
:40214000234B1B881A462C2303FB02F3214A9818FB68214A14210BF0B5FC1D4B1B881A462C2303FB02F310331A4A1344181DBB68194A14210BF0A6FC154B1B881946154AE9
:402180002C2303FB01F3134428337A681A60104B1B8801339AB20E4B1A80104B1B8801339AB20E4B1A800A4B1B88952B0BD9084B00221A800A4B01221A700A490220FEF7D7
:4021C00029FB002300E0012318461037BD4680BDE8C3FF1F10EDFF1F88740100EAC3FF1FE20600208C74010080B483B000AF1CE0FB88164A2C2101FB03F3134400221A70C3
:40220000FB88124A2C2101FB03F31344143300221A70FB880D4A2C2101FB03F31344283300221A60FB880133FB80FB88952BDFD9074B00221A80074B00221A80064B002213
:402240001A7000BF0C37BD4680BC704710EDFF1FE8C3FF1FEAC3FF1FE206002080B400AF024B1B881846BD4680BC7047EAC3FF1F80B400AF024B1B881846BD4680BC70470C
:40228000E8C3FF1F80B58CB008AFF860B9607A603B60FB6A01933B680093FB692A4A42F21071F8680BF00EFC284B07933B6A0693274B0593254B0493BB690393254B02930B
:4022C0007B680193244B0093FB68244A42F21071F8680BF0F7FB7B6A002B0CD07B6A1B78002B08D07B6A0093FB681D4A42F21071F8680BF0E7FB1B49F8690BF0E5FC03460D
:40230000002B13D0B8680BF01BFE0246BB6A1344154A03920293154B0193154B0093FB68144A42F21071F8680BF0CCFBBB680093FB68114A42F21071F8680BF0C3FB00BF8E
:402340001037BD4680BD00BFC4740100EC740100F07401000075010004750100D87401000C75010014750100247501002C75010040750100187501005C75010090B589B0FF
:4023800004AF78607B6800221A70334B1B7883F00103DBB2002B2DD00023FB8122E0FB892C2202FB03F32D4A1344FA892C2101FB02F2103229490A440432F98927482C2459
:4023C00004FB01F10144283109680291019200937B68234A42F2107178680BF073FBFB890133FB81FFF744FF03461A46FB899342D5D328E00023BB8122E0BB892C2202FBC7
:4024000003F3164A1344BA892C2101FB02F2103212490A440432B98910482C2404FB01F10144283109680291019200937B680C4A42F2107178680BF045FBBB890133BB81EE
:40244000BB89952BD9D978680BF07AFDB860BB6818461437BD4690BDE206002010EDFF1F6475010080B588B004AFF860B9607A603B60FB6800221A703B6802937B6801935F
:40248000BB680093FB68044AC821F8680BF01AFB00BF1037BD4680BD84750100B0B58CB000AF03F089FC034687F82F3097F82F3007F124010A2218460AF032FFFEF75EFA20
:4024C000024607F1240319462C48FFF733FE00233B713B1D18460BF033FD03461A463B1D1344274A1C4615460FCD20606160A260E36007F124023B1D114618460BF05CFB66
:402500003B1D19460020FEF785F91E491E480BF0D5FEB862BB6A002B11D0012003F030FC194B00221A70FEF729FA03461A4617491248FFF7FFFD16490020FEF76BF9154978
:4025400011480BF0BBFEB862BB6A002B11D0002003F016FC0C4B00221A70FEF70FFA03461A460D490548FFF7E5FD0C490020FEF751F9002318463037BD46B0BD94750100A3
:40258000A4750100B47501005C9CFF1FB8750100BC750100E8750100EC750100F075010080B582B000AF7860796803480BF06AFC00BF0837BD4680BD5C9CFF1F90B599B0DE
:4025C00002AFFEF7DBF978655A495B480BF076FE38655A4BFB633B6D002B00F0A680584B584A59495448FEF763FF584954480BF065FE38653B6D002B03D055490220FEF7D9
:4026000009F907F124034F4A4A494B48FEF750FF07F13C0207F124034E4918460BF09EFAFB6B0121184600F087F9034687F84F3097F84F3007F12000474A04210BF042FAE9
:4026400007F120037A6D19464448FFF773FD07F124037A6D19464248FFF76CFD012000F09FF8B864B86C09F0D5FE03460C4607F11800CDE90034374A05210BF023FA07F1B9
:4026800018037A6D19463748FFF754FD36492C480BF014FE38653B6D002B46D033490220FEF7B8F807F10C03264A31492248FEF7FFFE07F13C0207F10C03264918460BF0D8
:4026C0004DFAFB6B0221184600F036F9034687F8473097F8473007F108001F4A04210BF0F1F907F108037A6D19462248FFF722FD07F10C037A6D19461F48FFF71BFD022029
:4027000000F04EF83864386C09F084FE03460C463846CDE900340F4A05210BF0D3F93B467A6D19461548FFF705FD002318465C37BD4690BD1C760100780700209A99D93F62
:402740006CC4FF1F2476010028760100347601003C76010004770100087701000C770100247701003C770100547701005C770100747701007C77010094770100B0770100EF
:4027800080B582B000AF7860796803480BF07AFB00BF0837BD4680BD780700200000000090B59DB000AF0346FB71FB79012B03D8012006F0A9F802E0012006F0DFF80A208F
:4027C00002F01CFB05F0BCF905F094F904F0D6FC042387F86F3034E097F86F30184605F0C9F90023A7F86C300FE0B7F86C4005F055F90246A30007F170010B4443F8682CE5
:40280000B7F86C300133A7F86C30B7F86C300A2BEBD997F86F4007F108030B211846FEF70FFB0346184604F019FE0246A30007F170010B4443F83C2C97F86F30013387F8F7
:402840006F3097F86F30082BC6D905F079F905F041F904F0ABFCFB79012B07D8002006F053F87B6C7B65BB6CBB6506E0002006F085F8FB6C7B653B6DBB65294BBB6629490B
:4028800029480BF01BFD78667B6E002B0ED0274BBB667B6DBA6D114618460AF0F9FA0346B96E18460AF0F4FA03462BE020491E480BF004FD78667B6E002B22D07B6DBA6DB8
:4028C000114618460AF0E4FA03463B66386E09F0A1FD0FA3D3E9002309F01AFF03460C46184621460CA3D3E9002309F033FC03460C46184621460AF0B9F80346FB65FB6D4F
:4029000000E00C4B18467437BD4690BDAFF30080666666666666E63F0AD7A3703D0AA73FCDCCCCBD347801006CC4FF1FD7A3703F34760100000080BFF0B587B002AF7860A6
:402940000B46FB70012004F0CFF94FF07F53BB60FB781846FFF724FF0346796818460AF0D9F8034623F00043184609F053FDC0A3D3E900230AF014F80346002B1BD0786888
:4029800009F048FD05460E46FB781846FFF708FF0346184609F03EFD03460C46CDE900342A463346B6490220FDF734FF002004F09BF9012368E20023FB73FB781846FFF76D
:4029C000EFFE0346184609F025FD03460C461A462346AC490220FDF71DFFFB781846FFF7DFFE0346796818460AF05AFB0346002B00F00381B7E0FB781846FFF7D1FEB860F5
:402A0000FB78012B03D8012004F048F802E0012004F008F89C499D480BF050FC0346002B03D04FF47A7002F0E9F9994997480BF045FC0346002B03D04FF47A7002F0DEF93D
:402A4000FB78012B03D8002004F028F802E0002003F0E8FF4FF47A7002F0D0F9B86809F0D9FC05460E46FB781846FFF799FE0346184609F0CFFC03460C46CDE900342A4699
:402A8000334684490220FDF7C5FEFB781846FFF787FE034623F00042BB6823F00043194610460AF0FDFA0346002B06D07A490220FDF7B0FEFB7B0133FB73FB7B052B19D96D
:402AC000FB78012B03D8002003F0E8FF02E0002003F0A8FF002004F007F9786809F09AFC03460C461A4623466C490220FDF792FE0023C9E1FB781846FFF752FE034623F044
:402B00000043796818460AF0ADFA0346002B00D129E063490220FDF77DFEFB78012B03D8002003F0BBFF02E0002003F07BFF002004F0DAF8786809F06DFC05460E46FB78F7
:402B40001846FFF72DFE0346184609F063FC03460C46CDE900342A46334652490220FDF759FE012390E1FB781846FFF719FE03467968184609F0CEFF034623F000431846A3
:402B800009F048FC3CA3D3E9002309F027FF0346002B7FF430AFFB78012B03D8002003F07DFF02E0002003F03DFFFB781846FFF7F7FD03467968184609F0ACFF034623F0B8
:402BC0000043184609F026FC29A3D3E9002309F005FF0346002B00F03C81002004F084F8786809F017FC03460C461A4623462B490220FDF70FFE002346E1FB781846FFF7C8
:402C0000CFFD0346796818460AF02CFA0346002B00F01F81D4E0FB781846FFF7C1FDB860FB78012B03D8012003F01AFF02E0012003F0DCFE144915480BF040FB0346002BF0
:402C400003D04FF47A7002F0D9F811490F480BF035FB0346002B03D04FF47A7002F0CEF8FB78012B20D8002003F0FAFE1FE000BF9A9999999999A93FB81E85EB51B89E3F7E
:402C80004078010088780100347601006CC4FF1F34780100A0780100BC780100D47801000479010020790100002003F09FFE4FF47A7002F0A3F8B86809F0ACFB05460E4638
:402CC000FB781846FFF76CFD0346184609F0A2FB03460C46CDE900342A46334670490220FDF798FDFB781846FFF75AFD034623F00042BB6823F00043194610460AF0B2F906
:402D00000346002B06D067490220FDF783FDFB7B0133FB73FB7B052B19D9FB78012B03D8002003F09DFE02E0002003F05FFE002003F0DAFF786809F06DFB03460C461A46B1
:402D4000234659490220FDF765FD00239CE0FB781846FFF725FD034623F00043796818460AF09EF90346002B00D129E04F490220FDF750FDFB78012B03D8002003F070FE95
:402D800002E0002003F032FE002003F0ADFF786809F040FB05460E46FB781846FFF700FD0346184609F036FB03460C46CDE900342A4633463E490220FDF72CFD012363E04C
:402DC000FB781846FFF7ECFC03467968184609F0A1FE034623F00043184609F01BFB2CA3D3E9002309F0FAFD0346002B7FF413AFFB78012B03D8002003F032FE02E00020F2
:402E000003F0F4FDFB781846FFF7CAFC03467968184609F07FFE034623F00043184609F0F9FA1DA3D3E9002309F0D8FD0346002B0FD0002003F058FF786809F0EBFA034609
:402E40000C461A46234618490220FDF7E3FC00231AE0002003F048FF786809F0DBFA05460E46FB781846FFF79BFC0346184609F0D1FA03460C46CDE900342A4633460C4991
:402E80000220FDF7C7FC012318461437BD46F0BDB81E85EB51B89E3F9A9999999999A93FA0780100BC780100D4780100047901002079010080B586B000AFFDF75FFD38615B
:402EC00000237B612B492C480BF0F8F9F860FB68002B06D04FF47A737B6128490020FDF799FC274924480BF0E9F9F860FB68002B06D041F288337B6122490020FDF78AFCD9
:402F00001D4B00221A707A691F490020FDF782FC00F052F87B69184601F070FF00F05CF87B69184601F06AFF00F046F87B69184601F064FF00F050F8144B1B780133DAB236
:402F4000124B1A70114B1B783846114A0A210AF0B9FD3B461A460F490020FDF75BFC3B463A6919460C48FFF7E5F8002318461837BD4680BD68790100E40600206C79010097
:402F80009C790100A0790100D07901004A8BFF1FEC790100F0790100007A010080B582B000AF7860796803480AF06CFF00BF0837BD4680BDE406002080B500AF012005F098
:402FC000C1FC4FF47A7001F019FF024B01221A7000BF80BDE00B002080B500AF002005F0B1FC024B00221A7000BF80BDE00B002080B500AF02F0BCFE00BF80BDB0B588B00E
:4030000002AF554802F0D0FD02F01CFEFF2002F075FF02F0DFFEFDF7E1FBFEF755F8FEF7FDFB07F10C03184601F06AFFFA683B6900931346494A182149480AF043FD494B48
:40304000494A1A60494A4A4B14461D460FCD0FC40FCD0FC40FCD0FC495E8070003C422800234130C2370414B4FF47A625A66414B9B7899B2404C38460723012200F0BEF929
:4030800022463B46196811609B8893803B4B01221A70384BDB7899B2394C38460723012200F0ACF922463B46196811609B889380344B01221A70344B00221A702D4B5B7912
:4030C00099B2324C38460723012200F097F922463B46196811609B8893802D4B01221A70244B9B7999B22B4C38460723012200F085F922463B46196811609B889380264B86
:4031000001221A701B4BDB7999B2244C38460723012200F073F922463B46196811609B8893801F4B01221A70124B5B7A99B21D4C38460723012200F061F922463B461968B9
:4031400011609B889380184B01221A700023FB7500BF1837BD46B0BDF12F0000547A010054C4FF1F50C4FF1F6CECFF1FA8ECFF1F5C7A0100509CFF1FE0C3FF1F6C070020D3
:40318000C49CFF1FDCC3FF1FCA9CFF1F5CECFF1FD806002064ECFF1F6AECFF1F54ECFF1F48070020DC060020D906002080B582B000AF304B1B78002B06D000F003FC0346DF
:4031C0001A462C4B1A7009E02B4B1B78002B05D000F01AFC03461A46274B1A70274B1B78042B33D1264B1B78002B09D0254B1B78002B05D0FFF752F903461A46214B1A70AE
:40320000214B1B78002B09D0204B1B78002B05D0FCF792FF03461A461C4B1A701C4B1B78002B05D0FFF7CAF903461A46184B1A70184B1B78002B09D0174B1B78002B05D037
:40324000FFF738FE03461A46134B1A70134B1B78002B05D000F088F903461A460F4B1A70FEF762F90346FB71FB7918460837BD4680BD00BFCA9CFF1F6C070020509CFF1F6C
:40328000E7C3FF1FD806002051ECFF1F6AECFF1FE6C3FF1F5AECFF1FD9060020DCC3FF1F80B500AFFEF722FFFDF79EFA01F08AFE4FF40061002002F041F901F0C7FFFDF7F8
:4032C000A3FAFEF721FF00BF80BD00BF80B582B000AF0346FB71FB791946224800F05AF80346002B02D0204B01221A70FB7919461E4800F04FF80346002B02D01C4B012279
:403300001A70FB7919461B4800F044F80346002B02D0194B01221A70FB791946174800F039F80346002B02D0154B01221A70FB791946144800F02EF80346002B02D0124BBC
:4033400001221A70FB791946104800F023F80346002B02D00E4B01221A7000BF0837BD4680BD00BFE0C3FF1F6C070020C49CFF1FDCC3FF1F5CECFF1FD806002064ECFF1FC0
:403380006AECFF1F54ECFF1F48070020DC060020D906002080B582B000AF78600B46FB707B681B79DBB2FA789A4212D17B685B881BB29BB2013B9BB21AB27B685A807B6817
:4033C0005B881BB2002B04DC786800F007F8012300E0002318460837BD4680BD80B483B000AF78607B681B889BB21AB27B685A8000BF0C37BD4680BC704700BF80B485B0D5
:4034000000AF7860084611461A4603467B800B467B7013463B707B883B817B783B733B787B73B7F902307B817B681A4607F10803186810609B88938078681437BD4680BCC7
:40344000704700BF90B5ADF6141D5EAF38490320FDF7E0F907F214631846FCF77BFF07F21464684604F1100340F27112194609F08BFF94E80F00FDF745FA07F59263184639
:40348000FDF720FD07F59264684604F1100340F27112194609F078FF94E80F00FDF732FA07F543731846FDF76BFD07F54374684604F1100340F27112194609F065FF94E862
:4034C0000F00FDF71FFA07F5C4731846FDF7F6F807F5C474684604F1100340F27112194609F052FF94E80F00FDF70CFA3B1D1846FDF75EFF0F4B00930F4B104A104903204C
:40350000FDF788F93C1D684604F1100340F27112194609F039FF94E80F00FDF7F3F909490320FDF777F900BF07F29C77BD4690BD987A010054C4FF1F6CECFF1F94ECFF1F06
:40354000C47A0100E47A010080B500AF62B6FFF755FDFFF777FFFFF729FE0346002BFAD1FFF79EFEF7E700BF90B5ADF26C5D06AF012002F005FC642001F040FC002002F039
:40358000FFFBFEF775FE0346002B01D1002303E2FEF7A2FD0346002B11D1AE4B1B780133DAB2AC4B1A70AB4B1B78022B02D8FDF70BFEF0E1A74B00221A700023ECE1FEF7C3
:4035C0008BFD0346042B40F0E681A3490020FDF721F9A24B00221A70A14B00221A70A14B00221A70A04B5B6907F5A5609F4A14210AF068FAFDF7C2F9024607F5A5631946CD
:403600009B48FEF797FD984B9B6807F21450974A14210AF057FAFDF7B1F9024607F2145319469448FEF786FD8A4B1B7807F5A0608E4A14210AF046FAFDF7A0F9024607F505
:40364000A06319468C48FEF775FD8C4B1B7883F00103DBB2002B16D0FEF70AFE0346A7F84835B7F8483507F59B60804A14210AF029FAFDF783F9024607F59B6319468048B4
:40368000FEF758FD0FE007F2C4409623774A14210AF018FAFDF772F9024607F2C44319467748FEF747FDFEF7D9FD0346A7F84635B7F84635013B07F2EC406C4A14210AF07D
:4036C00001FAFDF75BF9024607F2EC4319466D48FEF730FD6C490020FDF79CF86B4B6C4A6C496048FEF7BEFE5E4A6B490020FDF791F85B48FEF742FE684B5B6E684A059274
:4037000000220492674A0392674A0292674A01920093544B614A52495048FEF7B3FD4F4A63490020FDF776F8002387F845355B4B5A6E381D594B009313465E4AC8210AF08C
:40374000C1F93B1D1A465C490020FDF763F83B1D42F2107259491846FDF7C6FD034687F845353E4BC7F84C353C480AF0E9FB0246534BA3FB02235B09184608F029FE4FF0C8
:403780000002504B07F0E8FC03460C461846214607F05AFC03460C461846214609F03EF9034687F844352D480AF0CAFB03461A4645490020FDF72EF897F944351A46434979
:4037C0000020FDF727F8002387F84B359AE04FF47A723F493F48FDF787FD034687F8453507F1CC00D7F84C35334A4FF4FA710AF069F907F1CC0318460AF0A2FB03461A4602
:4038000007F1CC03134434491A460B461B88138097F94B2507F1CC0330490020FCF7FAFF97F94B355A1C97F944359A4258D007F1CC0341F2883221491846FDF755FD03461C
:4038400087F84535D7F84C3503F2F313C7F84C3551E000BFE10B0020107B0100CC9CFF1F78C4FF1F88EBFF1F4C070020207B0100247B01002C7B0100347B0100E2060020BC
:40388000407B0100507B0100647B0100787B010094ECFF1FA47B0100B47B0100A8ECFF1FC47B0100C87B0100CC7B0100D47B0100DC7B0100F47B0100107C0100147C01000A
:4038C000D34D621000407F40187C0100307C0100447C0100487C0100587C01005C7C010007F1CC0341F288322E491846FDF7FCFC034687F8453597F94B35DBB20133DBB2AC
:4039000087F84B3597F94B2597F944359A42FFF65EAF41F2883224492448FDF7E5FC034687F8453597F84535012B1DD1FDF79CFFFEF75AFCFDF722F802461D4B1B68D31A99
:40394000C7F8403507F59760D7F84035194A0A210AF0B8F8FDF712F8024607F5976319461548FEF7E7FB03E014490220FCF752FFFEF710FBC7F83C05D7F83C35002B03D0F1
:40398000D7F83C0500F092F9FDF7FEFB0C4B00221A70002300E00123184607F25457BD4690BD00BF6C7C0100747C01007C7C0100DC070020207B0100907C0100A07C0100B8
:4039C000E10B002080B582B000AFFEF785FB0346002B02D1FDF7F8FB11E0FEF77DFB0346042B0CD1FEF7D6FA78607B68002B02D0786800F05BF9FDF7C7FB002300E00123D1
:403A000018460837BD4680BD90B5A3B002AFFCF7B5FFF86707F15C00FB6F8E4A20210AF051F88D4B1B78184607F140030A22194609F076FCFCF7A2FF024607F140031946D0
:403A40008648FEF777FB844B1B78002B3BD107F110031846FCF7F0FB97F82830002B2ED0B7F9263007F148007D4A14210AF02AF807F148031A467B490020FCF7CBFE07F188
:403A80004803FA6F19467848FEF754FB07F15C031A4676497648FCF783FD764A73497448FCF77EFD07F148031A4670497048FCF777FD714A6D496E48FCF772FD03E06F4903
:403AC0000220FCF7A7FE07F12C031846FCF7A0FF97F83C30002B00F0B380FB6A184608F099FC03460C4607F14800CDE90034644A142109F0E7FF07F148031A466149002068
:403B0000FCF788FE07F14803FA6F19465E48FEF711FB594A55495648FCF742FD07F15C031A4652495248FCF73BFD584A4F495048FCF736FD07F148031A464C494C48FCF77B
:403B40002FFD454B1B78012B03D0434B1B78042B7AD13C466A4607F1380393E8030082E8030007F12C030ECB2046FDF7B9F8BB68184608F04FFC03460C4607F14800CDE9AC
:403B800000343F4A142109F09DFF07F148031A463F490020FCF73EFE07F14803FA6F19463C48FEF7C7FA344A30493148FCF7F8FC07F15C031A462D492D48FCF7F1FC364A66
:403BC0002A492B48FCF7ECFC07F148031A4627492748FCF7E5FCFB68184608F01BFC03460C4607F14800CDE90034254A142109F069FF07F148031A4628490020FCF70AFEE5
:403C000007F14803FA6F19462548FEF793FA1A4A16491748FCF7C4FC07F15C031A4613491348FCF7BDFC1F4A10491148FCF7B8FC07F148031A460D490D48FCF7B1FC03E008
:403C400019490220FCF7E6FD002318468437BD4690BD00BFCC7C0100509CFF1FD07C0100207B0100E47C0100F87C0100087D0100D080FF1F0C7D0100207D0100247D0100CF
:403C8000507D0100587D0100647D01006C7D0100747D0100887D01009C7D0100B07D0100C47D0100D47D0100E87D010080B586B000AF78607B68002B05DC18490220FCF703
:403CC000A9FD002325E03B1D184609F0FDF978617B691B68DBB23B727B695B68DBB27B727B699B68DBB2BB727B695B699BB203F26C739BB27B827B691B69DBB23B747B697A
:403D0000DB68DBB23B7307F10803184602F0CAF8012318461837BD4680BD00BF107E010080B582B000AF786039603A680021786809F0A0FB00BF0837BD4680BD80B584B02C
:403D400000AFF860B9607A607A68B968F86809F01BFB00BF1037BD4680BD00BF80B483B000AF0346FB71FEE780B487B000AF7860396000233B6100237B6127E07B699B0053
:403D80007A6813441B68BB60BB68FB73BB6823F0FF03BB6014E03B695B003A6813441B781A46BB68134419463B695B003A6813445B780B703B6901333B61FB7B013BFB73B6
:403DC000FB7B002BE7D17B6901337B617B69252BD4D900BF1C37BD4680BC704780B582B000AF624B1B78BB70614B00221A80614B58221A70604B00221A80604B50221A70E6
:403E00005F4B19221A805F4B19221A705E4B19221A805E4B19221A705D4B4FF49C721A805C4B18221A705C4B00221A805B4B1B221A705B4B09221A805A4B1B221A700422DD
:403E400059495A48FFF77AFF594B02221A704FF0402308221A70574BF3221A70434B03221A70554B84221A70544B05221A70544B7B6006E04FF4F07004F09EFD7B68013B98
:403E80007B607B68002B06D04C4B1B78DBB203F02003002BEED0354ABB781370494B02221A70494B494A1278D2B21A70484B4FF4E1621A80474B41F251221A800023FB7044
:403EC00019237B6014E0FB785B00DAB2424B1B78DBB203F00103DBB21343DBB203F00303FB704FF4F07004F067FD7B68013B7B607B68002B02D0FB78032BE4D17B68002BAC
:403F000002D10320FFF72AFF344B4FF480721A80324B07221A70324B00221A70314B48221A702E4B00221A702F4B02221A702F4B04221A702E4A2E4B1B78DBB243F07F0318
:403F4000DBB213702B4A2B4B1B78DBB243F00103DBB21370284A284B1B78DBB263F07F03DBB2137000BF0837BD4680BD98460040804000408240004084400040864000408D
:403F8000884000408A4000408C4000408E40004090400040924000409440004096400040984000409A400040D40A004800410040004300400A430040094300400843004089
:403FC000A086010000420040A14600400B010049224200402042004025420040044000400640004008400040014000400B400040A2430040A1430040A043004080B483B03E
:4040000000AF124B1B78FB71114AFB7903F00703DBB213700F4AFB791B09DBB213700E4B02221A700D4B02221A700D4B20221A700C4B20221A700C4B40221A700B4B662223
:404040001A7000BF0C37BD4680BC7047CF0100496E5800406F58004041580040A7430040CB5A0040D45A0040585B00407658004080B485B000AF0346FB71FB79012202FA61
:4040800003F3FB73FB79072B3BD8204B1A78FB7B1340DBB2002B34D11C4B1A78FB7B1343DAB21A4B1A70FB79194A52F82330FA79174951F822201178FA791648825C0A43C9
:4040C000D2B21A70FB79144AD35CBB73BB7B134AD35C002B0ED1BB7B114A52F82330BA7B0F4951F822201178BA7B0E48825C0A43D2B21A70BB7B094AD25C0132D1B2074A66
:40410000D15400BF1437BD4680BC7047508BFF1F387E0100587E01007C7E0100548BFF1F607E0100747E010080B485B000AF0346FB71FB79012202FA03F3FB73FB79072B9F
:4041400041D8234B1A78FB7B1340DBB2002B3AD0FB7BDB43DAB21E4B1B781340DAB21C4B1A70FB791B4A52F82330FA79194951F822201178FA791848825CD243D2B20A40BC
:40418000D2B21A70FB79154AD35CBB73BB7B144AD25C013AD1B2124AD154BB7B104AD35C002B10D1BB7B0F4A52F82330BA7B0D4951F822201178BA7B0B48825CD243D2B22B
:4041C0000A40D2B21A7000BF1437BD4680BC7047508BFF1F387E0100587E01007C7E0100548BFF1F607E0100747E010080B483B000AF0346FB71FB79012B0ED8FB79094AFE
:4042000052F82330FA79074951F822201178FA790548825C0A43D2B21A7000BF0C37BD4680BC7047847E01008C7E010080B483B000AF0346FB71FB79012B10D8FB790A4AF0
:4042400052F82330FA79084951F822201178FA790648825CD243D2B20A40D2B21A7000BF0C37BD4680BC7047847E01008C7E010080B586B000AF72B60023FB7513E0FA7DF4
:4042800013465B0013445B004E4A13443B613B691A683B699B889BB219461046FFF740FDFB7D0133FB75FB7D062BE8D90023FB751CE0FA7D13469B0013445B00424A1344D6
:4042C000FB60FB681B68BB60FB685B687B60FB681A7A5B7A1B0213437B807B881A467968B868FFF72BFDFB7D0133FB75FB7D002BDFD036494FF09040FFF736FD344B0A22D5
:404300001A70344B40F203121A80334A324B1B78DBB243F00203DBB21370304A2F4B1B78DBB243F00203DBB213702D4A2C4B1B78DBB243F04003DBB213702A4A294B1B78C6
:40434000DBB243F01003DBB21370082226492748FFF7F4FC082226492648FFF7EFFC0A2225492648FFF7EAFC082225492548FFF7E5FC082224492548FFF7E0FC0822244957
:404380002448FFF7DBFC244A234B1B78DBB243F00803DBB21370214B61221A70FFF71EFD1E4B81221A701E4B01221A70FFF726FE0E220B491B48FFF7C1FC00BF1837BD467F
:4043C00080BD00BF907E0100BC7E010098000048835800404A5800400350014013500140A0430040C2430040A00A004802510040A80A0048C2510040B00A0048F0510040A5
:40440000BC0A004812510040C40A004822510040CC0A004832510040224300400048004004000840B043004080B500AF08F046FE03461B680C2B00D1FEE7FEE780B584B04E
:4044400000AF7860104B1A687B6813441A460F4BD31AB3F5804F09DC0B4B1B68FB600A4B1A687B681344084A136007E008F026FE02460C2313604FF0FF33FB60FB68184617
:404480001037BD4680BD00BFF080FF1F780C002080B586B000AF224B7B61224B3B61204B7B6135E03B691B68FB603B695B68BB603B699B683B6000237B600CE0FB681A68A7
:4044C000BB681A60BB680433BB60FB680433FB607B6804337B607A683B689A42EED13B69DB683B6000237B6008E0BB6800221A60BB680433BB607B6804337B607A683B688A
:404500009A42F2D13B6910333B617B69013B7B617B69002BC6D108F0C3FEFFF715F8FEE701000000BC85010080B582B000AF184B184A1A60184A184B1B6843F40073136019
:4045400000237B600FE07B68032B04D8134A7B6852F8233000E0124B12497A6841F822307B6801337B607B682F2BECD90E4B1B78DAB20E4B1A700E4B0A4A1A60FFF778FE9D
:404580000C4B00221A6000BF0837BD4680BD00BF0CED00E00004FA0514ED00E000000000294400000080FF1FBC760040C480FF1F08ED00E0C080FF1F80B584B000AF0346DB
:4045C000FB710023FB60234A224B1B78DBB243F00103DBB21370FB79002B36D01E4B1B78DBB203F00403FB721C4B1B78BB721C4B1B787B72182001F087F81023FB6010E0C7
:40460000184B1B78DBB203F00103002B09D0154B1B78DBB203F00103002B02D00023FB6008E0012001F042F8034603F00103DBB2002BE5D0FB7A002B01D100F04BFB074A30
:40464000BB7A1370064A7B7A1370FB6818461037BD4680BD204200400043004080430040824300402542004080B400AF054A054B1B78DBB223F00103DBB2137000BFBD4613
:4046800080BC70472042004080B584B000AF0346FB711D4A1C4B1B78DBB243F01003DBB213701A4A194B1B78DBB243F01003DBB21370FB79002B23D0154B1B78DBB203F011
:4046C0000403FB73134B1B78BB73134B1B787B73002001F019F800BF012000F0E7FF034603F00103DBB2002BF6D0FB7B002B01D100F0F0FA074ABB7B1370074A7B7B137090
:4047000000BF1037BD4680BDA0430040B043004000430040804300408243004080B400AF094A094B1B78DBB223F01003DBB21370064A064B1B78DBB223F01003DBB213707B
:4047400000BFBD4680BC7047A0430040B043004080B483B000AF0023FB71124B1B78DBB203F00703002B06D10F4B1B78DBB203F00103002B0DD10B4B1B78DBB203F0070320
:40478000012B08D1094B1B78DBB203F00103002B01D00123FB71FB7918460C37BD4680BC704700BF93430040A5430040B543004080B584B000AF0346FB71FFF7C9FF0346E9
:4047C000FB73FB7B012B07D1314A314B1B78DBB223F00203DBB21370FB79082B4FD801A252F823F00948000015480000214800002D48000039480000454800005148000091
:404800007F4800005D480000224B234A1278D2B21A7039E01F4B214A1278D2B21A7033E01C4B1F4A1278D2B21A702DE0194B1D4A1278D2B21A7027E0164B1B4A1278D2B24E
:404840001A7021E0134B194A1278D2B21A701BE0104B174A1278D2B21A7015E00D4B154A1278D2B21A70FB7B012B0CD1084A084B1B78DBB243F00203DBB2137003E0002032
:4048800000F0B0FA00E000BF00BF1037BD4680BD09600040A146004008010049090100490A0100490B010049890100490C0100490D0100490F01004980B584B000AF034621
:4048C000FB71684B1B78DBB203F00703FB73FB79082B01D0FB7900E00323BB73FB7B062B25D801A252F823F0054900000B49000011490000174900001D490000234900001C
:40490000294900000223FB7315E00123FB7312E00323FB730FE00023FB730CE00423FB7309E00523FB7306E00623FB7303E0002000F058FA00BFBA7BFB7B9A4203D3FB7993
:404940001846FFF735FFFB79082B72D801A252F823F000BF7949000091490000A9490000BB490000D3490000EB490000034A0000334A00001B4A00003A4A3A4B1B78DBB2C5
:4049800023F04703DBB243F00303DBB2137054E0344A344B1B78DBB223F04703DBB243F00103DBB2137048E02E4A2E4B1B78DBB223F04703DBB213703FE02A4A294B1B7802
:4049C000DBB223F04703DBB243F00203DBB2137033E0244A234B1B78DBB223F04703DBB243F00403DBB2137027E01E4A1D4B1B78DBB223F04703DBB243F00503DBB2137089
:404A00001BE0184A174B1B78DBB223F04703DBB243F00603DBB213700FE0124A114B1B78DBB223F04703DBB243F04203DBB2137003E0002000F0D6F900BFFB79082B02D12D
:404A400000F058F801E000F065F8BA7BFB7B9A4203D2FB791846FFF7ABFE00BF1037BD4680BD00BF0042004080B582B000AF0346FB71FB79012B17D0022B02D0002B26D002
:404A80002EE04FF040224FF040231B78DBB223F04003DBB21370164A154B1B78DBB243F02003DBB213701FE04FF040224FF040231B78DBB243F04003DBB213700C4A0C4B44
:404AC0001B78DBB243F02003DBB213700CE0084A074B1B78DBB223F02003DBB2137003E0002000F07FF900BF00BF0837BD4680BD0042004080B400AF054A054B1B78DBB2AE
:404B000043F01003DBB2137000BFBD4680BC70470042004080B400AF054A054B1B78DBB223F01003DBB2137000BFBD4680BC70470042004080B483B000AF0346FB710949BC
:404B4000084B1B78DBB223F00303DAB2FB7903F00303DBB21343DBB20B7000BF0C37BD4680BC70470540004080B483B000AF0346FB71044AFB79137000BF0C37BD4680BCF7
:404B8000704700BF0440004080B483B000AF0346FB80154A144B1B78DBB223F00F03DBB21370124B00221A70114A114B1B78DBB263F07F03DBB213700E4BFA88D2B21A7060
:404BC0000D4AFB881B0A9BB2DBB213700B4A0B4B1B78DBB243F00103DBB2137000BF0C37BD4680BC704700BF1440004010400040084000400240004003400040014000405E
:404C000080B584B000AF0346FB8003F0DDFE0346FB73244B1B78DBB29BB21B02BB81224B1B78DBB29AB2BB891343BB81FB88002B02D0BB89002B29D11C4B1B78FB72FB7A6A
:404C4000062B02D80720FFF78FFFFB88002B0CD1174A174B1B78DBB243F04003DBB21370FB881846FFF790FF0BE0FB881846FFF78BFF0F4A0E4B1B78DBB223F04003DBB223
:404C80001370FB7A1846FFF76FFF03E0FB881846FFF77AFFFB7B184603F09AFE00BF1037BD4680BD0740004006400040044000400840004080B400AF054A054B1B78DBB2A7
:404CC00043F00403DBB2137000BFBD4680BC70470043004080B400AF054A054B1B78DBB223F00403DBB2137000BFBD4680BC70470043004080B586B000AF0346FB7100233C
:404D00007B61FB793B742B4A2A4B1B78DBB243F00103DBB21370FB79002B45D0264B1B78FB74264B1B78BB74254B1B787B74182000F0EAFC10237B6125E01E4B1B78042392
:404D4000FB730EE000BF012000F0B0FC034603F00103DBB2002BF6D0FB7BDBB2013BDBB2FB73FB7BDBB2002BECD1124B1B78DBB25BB2002B02DB00237B6108E03B7CDBB2BB
:404D8000013BDBB23B743B7CDBB2002BD5D1FB7C03F00403002B01D1FFF79CFF074ABB7C1370074A7B7C13707B6918461837BD4680BD00BF104200400043004080430040E9
:404DC0008243004080B400AF054A054B1B78DBB223F00103DBB2137000BFBD4680BC70471042004080B483B000AF0346FB7101BE00BF0C37BD4680BC704700BF80B582B0F6
:404E000000AF786008E00C4B1B68184603F0D4FD7B68A3F500437B607B68B3F5004FF2D8064B1B687A6802FB03F3184603F0C4FD00BF0837BD4680BD0081FF1FF880FF1F9C
:404E400080B582B000AF0346FB80FB88054A127802FB03F3184603F0AFFD00BF0837BD4680BD00BFFC80FF1F80B584B000AF03463960FB710F4B1B68FB60FB791F2B02D93E
:404E80000020FFF7AFFFFB7903F01F0310339B00FA6813441B68BB60FB7903F01F0310339B00FA6813443A681A60BB6818461037BD4680BD08ED00E080B582B000AF0346F8
:404EC0000A46FB711346BB71BB79072B02D90020FFF788FFFB791F2B02D90020FFF782FFFB7903F01F0303F1604303F56443BA795201D2B21A7000BF0837BD4680BD00BF13
:404F000080B483B000AF7860264B1B78DBB21A467B681A60244B1B78DBB21B027A6812681A437B681A60214B1B78DBB21B047A6812681A437B681A601D4B1B78DBB21B0609
:404F40007A6812681A437B681A607B680433194A1278D2B21A60184B1B78DBB21A027B6804337968043109680A431A60134B1B78DBB21A047B6804337968043109680A4385
:404F80001A600F4B1B78DBB21A067B6804337968043109680A431A6000BF0C37BD4680BC704700BF0301004904010049EC4600400201004901010049000100490501004981
:404FC0000601004980B500AF924B1B78DBB203F00F03DAB2904B1A70904B1B78DAB28E4B5A708C4A8B4B1B78DBB223F00F03DBB213708A4B1B78894B00221A70884B1B789E
:40500000DBB223F03F03DAB2834B5A71372003F0E3FC844B1B78DBB203F00703DAB27E4BDA70804B1B78DBB203F04003DAB27A4B1A717C4B1B78DBB203F01003002B03D0CD
:40504000754B01225A7202E0734B00225A72764B1B78DBB203F00303DAB26F4B9A706E4B9B78012B1CD14FF040231B78DBB203F00303012B08D0012B02D3022B08D00BE034
:405080000020FFF757FD0BE00220FFF753FD07E00320FFF74FFD03E00020FFF7A3FE00BF624B1B78DBB203F00103002B05D05A4B01229A73FFF7D8FA02E0574B00229A737A
:4050C0000420FFF7F9FB5A4B1B78DBB203F01003DBB2002B03D0504B01229A7108E04E4B00229A710020FFF7CFFA0620FFF7A8FE4C4B1B78DBB203F02003002B10D04FF01D
:4051000040231B78DBB203F04003002B01D1022200E00122404BDA710020FFF7A5FC02E03D4B0022DA714FF040231B78DBB203F03003DAB2384B1A72374B1B7A002B09D090
:405140004FF040224FF040231B78DBB223F03003DBB21370334B1B78DBB203F01003002B01D0FFF7D7FC334B1B78DAB22A4B9A72294B9B7A002B02D00020FFF7F5FC264BF1
:405180009B78002B02D00020FFF7D4FC2A4B1B78DBB29BB21B029AB21F4B9A81274B1B78D9B21D4B9A898BB213439AB21A4B9A81194B9B89002B02D00020FFF721FD194B92
:4051C0001B78DBB203F007031D4AD35C184603F003FC1C4B1B78DBB203F00103002B05D00D4B0122DA73FFF7EDFD02E00A4B0022DA73154B1B78DBB203F00403002B03D068
:40520000054B01221A7402E0034B00221A7400BF80BD00BFA14300408C8BFF1FA243004000480040004200400540004020420040A04300400440004007400040064000406F
:40524000C87E0100104200400B40004080B586B000AF10233B61AB4A3B1D106818609188927999809A71A84B1B7C012B17D1A74B1B78DBB203F00703A54AD35C1A461346D8
:405280009B0013441A01D31A184603F095FBA14AA04B1B78DBB243F00403DBB213709A4BDB7B012B24D10020FFF724FD9A4B1B780523FB8219E0954B1B78DBB203F007032D
:4052C000934AD35C1A46C82303FB02F3184603F073FB914B1B78DBB25BB2002B02DB00233B6105E0FB8A013BFB82FB8A002BE2D1372003F071FB844B9B78022B03D0824BEA
:405300009B78032B10D1854B1B78DAB27E4B9B7A9A4204D07C4B9B7A1846FFF725FC7A4B9B781846FFF706FC774B1B7903F04003002B0CD0744BDB7807F11802134413F836
:40534000143C032B03D10820FFF7B6FA20E06E4BDB7807F11802134413F8143C1846FFF7ABFA694B1B7903F04003002B08D0674A664B1B78DBB243F04003DBB2137007E0D4
:40538000624A624B1B78DBB223F04003DBB213705D4B9B79012B0AD1614B1B78DBB203F01003DBB2002B02D10020FFF76DF9564BDB791846FFF758FB534B5B7A012B01D165
:4053C000FFF798FB504B1B7A1A464FF040231B78DBB203F030039A4210D04FF040214FF040231B78DBB25BB223F030035AB2464B1B7A5BB213435BB2DBB20B70424B9B7BEE
:40540000012B26D110233B610020FFF7D5F85020FFF716FD434B1B78AB23FB8216E00120FFF70EFD3F4B1B78DBB203F00103002B09D03C4B1B78DBB203F00103002B02D05A
:4054400000233B6105E0FB8A013BFB82FB8A002BE5D12D4B9B78002B03D02B4B9B78012B10D12E4B1B78DAB2274B9B7A9A4204D0254B9B7A1846FFF777FB234B9B781846CC
:40548000FFF758FB204B9B79002B09D1244B1B78DBB203F01003DBB2002B01D0FFF73EF9214B1B78DBB29BB21B02FB811F4B1B78DBB29AB2FB891343FB81134B9B89FA8931
:4054C0009A4204D0104B9B891846FFF799FB1849174B1B78DBB25BB203F03F035AB20A4B5B795BB213435BB2DBB20B70114B064A12781A70104B044A52781A7000BF1837F8
:40550000BD4680BDD07E01008C8BFF1F00420040C87E01000B4000401042004004400040A043004025420040074000400640004000480040A1430040A243004080B584B02C
:4055400000AF03460A46FB711346BB8003F03CFA0346FB734E4B1B78DBB203F00803002B0BD14C4A4B4B1B78DBB203F01F03DBB21370FB79002B08D004E0FB7B184603F0B2
:4055800027FA81E00020FFF72DFC00F007F9424B1B78DAB2414B1A713F4ABB881B099BB2DBB213703E4B1B78DAB23C4B5A713C4ABB88DBB203F00F03DBB21370394B1B78AE
:4055C000DAB2364B9A71374ABB881B0B9BB2DBB203F00103DBB21370334B1B78DBB203F00703002B04D12D4B012283F82E2014E02A4B002283F82E202B4B1B78DBB203F0EC
:405600000703DAB2254B83F82D20274A264B1B78DBB223F00703DBB213701D4A1C4B1B78DBB223F00703DBB243F00303DBB21370174B1B7800BF00BF30BF184B93F82E30DE
:40564000012B0FD01849184B1B78DBB25BB223F007035AB2114B93F82D305BB213435BB2DBB20B7000F0DAF90B4B0C4A12791A700B4B0A4A52791A700A4B084A92791A708A
:40568000FB7B184603F0A4F91037BD4680BD00BF9343004083460040984300405C8BFF1F994300409A4300400042004080B584B000AF0346FB7103F087F90346FB73104BF4
:4056C0001B78DAB20F4B1B781343DAB20D4B1A700C4B1B7803F00703BB73FB79DB43DAB2084B1B781340DAB2064B1A70FB7B184603F06EF9BB7B18461037BD4680BD00BFFF
:40570000904300409E8BFF1F80B582B000AF0346FB71204A1F4B1B78DBB223F00203DBB21370FFF7C7FA1B4B1B78DBB203F00103002B19D0184B1B78DBB2FA799A4224D01A
:40574000144A144B1B78DBB223F00103DBB21370114AFB7913700F4A0E4B1B78DBB243F00103DBB2137010E00B4B1B78DBB2FA799A4202D0084AFB791370064A054B1B78B7
:40578000DBB243F00103DBB2137000BF0837BD4680BD00BF824300408043004080B400AF804B1B78DAB2804B9A72804B1B78DAB27D4BDA727E4B1B78DAB27B4B1A737D4B6B
:4057C0001B78DAB2784B5A737B4B1B78DAB2764B9A737A4B1B78DAB2734BDA73784B1B78DAB2714B1A74774B1B78DAB26E4B5A74754B1B78DAB26C4B9A74744B1B78DAB242
:40580000694BDA74724B1B78DAB2674B1A75714B1B78DAB2644B5A756F4B1B78DAB2624B9A756E4B1B78DAB25F4BDA756C4B1B78DAB25D4B1A766B4B1B78DAB25A4B5A7632
:40584000694B1B78DAB2584B9A76684B1B78DAB2554BDA76664B1B78DAB2534B1A77654B1B78DAB2504B5A77634B1B78DAB24E4B9A77624B1B78DAB24B4BDA77604B1B783E
:40588000DAB2494B83F820205E4B1B78DAB2464B83F821205C4B1B78DAB2434B83F822205A4B1B78DAB2404B83F82320584B1B78DAB23D4B83F82420564B1B78DAB23A4B8C
:4058C00083F82520374B00221A70384B00221A70374B00221A70374B00221A70364B00221A70364B00221A70354B00221A70354B00221A70344B00221A70344B00221A7027
:40590000334B00221A70334B00221A70324B00221A70324B00221A70314B00221A70314B00221A70304B00221A70304B00221A702F4B00221A702F4B00221A702E4B00223C
:405940001A702E4B00221A702D4B00221A702D4B00221A702C4B00221A702C4B00221A702B4B00221A702B4B00221A702A4B1B78DBB203F00803002B0CD00B4B012283F818
:405980002F20254A244B1B78DBB223F00803DBB2137003E0044B002283F82F2000BFBD4680BC7047005A00405C8BFF1F025A0040035A0040045A0040065A0040085A0040E1
:4059C0000A5A0040105A0040125A0040135A0040145A0040165A0040185A00401A5A0040205A0040225A0040235A0040245A0040265A0040285A00402A5A0040305A00403B
:405A0000325A0040335A0040345A0040365A0040385A00403A5A00402243004080B400AF434B444A927A1A70434B424AD27A1A70424B404A127B1A70414B3E4A527B1A70C6
:405A4000404B3C4A927B1A703F4B3A4AD27B1A703E4B384A127C1A703D4B364A527C1A703C4B344A927C1A703B4B324AD27C1A703A4B304A127D1A70394B2E4A527D1A7032
:405A8000384B2C4A927D1A70374B2A4AD27D1A70364B284A127E1A70354B264A527E1A70344B244A927E1A70334B224AD27E1A70324B204A127F1A70314B1E4A527F1A70A2
:405AC000304B1C4A927F1A702F4B1A4AD27F1A702E4B184A92F820201A702D4B154A92F821201A702B4B134A92F822201A702A4B104A92F823201A70284B0E4A92F824202E
:405B00001A70274B0B4A92F825201A70094B93F82F30012B07D1234A224B1B78DBB243F00803DBB2137000BFBD4680BC704700BF005A00405C8BFF1F025A0040035A0040E5
:405B4000045A0040065A0040085A00400A5A0040105A0040125A0040135A0040145A0040165A0040185A00401A5A0040205A0040225A0040235A0040245A0040265A004029
:405B8000285A00402A5A0040305A0040325A0040335A0040345A0040365A0040385A00403A5A00402243004080B582B000AF786000F03CF8786800F009F8072000F018F809
:405BC00000F028F800BF0837BD4680BD80B485B000AF7860054B1B68FB60FB684C337A681A6000BF1437BD4680BC704708ED00E080B483B000AF0346FB71054AFB795B013C
:405C0000DBB2137000BF0C37BD4680BC704700BF03E400E080B400AF034B08221A6000BFBD4680BC704700BF00E100E080B400AF034B08221A6000BFBD4680BC704700BF83
:405C400080E100E080B500AF064B1B78002B04D100F00AF8034B01221A7000F00FF800BF80BD00BF9F8BFF1F80B500AF0A2000F05BF800F03FF800BF80BD00BF80B582B09A
:405C800000AF1A4B1B78DBB203F00203002B18D102F09AFE0346FB71144A144B1B78DBB243F00203DBB21370114A114B1B78DBB243F00403DBB21370FB79184602F088FED5
:405CC0000FE002F081FE0346FB71094A084B1B78DBB243F00403DBB21370FB79184602F077FE00BF0837BD4680BD00BF004300408243004080B582B000AF02F065FE03460D
:405D0000FB71084A074B1B78DBB243F00803DBB21370FB79184602F05BFE00BF0837BD4680BD00BF8243004080B483B000AF0346FB710D4B1B78DBB203F00403002B0DD180
:405D40000A490A4B1B78DBB223F00F03DAB2FB7903F00F03DBB21343DBB20B7000BF0C37BD4680BC704700BF824300408143004080B500AF0220FFF799FC0346184680BD11
:405D800080B485B000AF0346FB710A4B1B78DBB223F00103FB730749FB7903F00103DAB2FB7B1343DBB20B7000BF1437BD4680BC704700BF2051004080B400AF044B1B78CC
:405DC000DBB203F00103DBB21846BD4680BC70472151004080B500AF064B1B78002B04D100F022F8034B01221A7000F033F800BF80BD00BFA08BFF1F80B400AF034B02224B
:405E00001A6000BFBD4680BC704700BF00E100E080B400AF034B02221A6000BFBD4680BC704700BF80E100E080B500AF00F0B8F8064B02221A6006490120FFF715F8072121
:405E40000120FFF739F800BF80BD00BF80E100E0D563000080B582B000AF02F0B5FD0346FB71094A084B1B78DBB243F03003DBB21370FB79184602F0ABFD044B02221A60A2
:405E800000BF0837BD4680BD8243004000E100E080B400AF024B1846BD4680BC704700BF0481FF1F80B582B000AF7860FFF7B0FF7B681B78DAB2104B1A707B685B78DAB23C
:405EC0000D4B5A707B689B78DAB20B4B9A707B681B79DAB2084B1A717B681B7ADAB2064B1A727B685B899AB2034B5A81FFF784FF00BF0837BD4680BD0481FF1F80B483B0DF
:405F000000AF0346FB71044AFB79137000BF0C37BD4680BC704700BFA38BFF1F90B482B000AF0346FB710B46BB711346BB80BB79022B02D8BB88013BBB80BA88BB889B08AD
:405F40009BB21846BB881349A1FB03135B099BB2C31AB9880F48A0FB0101C90989B20B441344BA79013A0C498A5C1146FA790A441A440A4BA2FB0334111B49080B19990825
:405F80000B46DB005B1AD11ACBB218460837BD4690BC70471F85EB51E47E01002549922480B582B000AFA04B0022DA809E4B1B79D9B29D4BDB889AB28BB213449AB29A4BED
:405FC000DA80994B5B899BB2984AA2FB0312D2094FF4C87101FB02F29B1A9BB2002B15D0914B5B899BB203F003039BB2002B16D18D4B5B899BB28D4AA2FB0312520964216E
:4060000001FB02F29B1A9BB2002B08D0884B1B78DBB243F00203DAB2854B1A7007E0844B1B78DBB223F00203DAB2814B1A700023FB710DE07C4BDB889AB2FB797D49CB5C37
:406040009BB213449AB2784BDA80FB790133FB71FA79754B1B7ADBB2013B9A42EAD3744B1B78DBB203F00203002B0BD06E4B1B7ADBB2022B06D96C4BDB889BB201339AB22A
:40608000694BDA80684B1B79D8B2674B1B7AD9B2654B5B899BB21A46FFF740FF03460133DAB2614BDA70604BDB78DBB2002B05D05D4BDB78DAB25C4BDA7006E05A4BDB78D9
:4060C000DBB20733DAB2584BDA70574B9B78DBB20B2B08D8564B1B78DBB223F00403DAB2534B1A7007E0524B1B78DBB243F00403DAB24F4B1A70504B1B78DBB203F0010339
:40610000002B18D04D4B1B78DAB2474B1B78DBB29A4208D14A4B1B78DBB243F00103DAB2474B1A7007E0464B1B78DBB223F00103DAB2434B1A70404B1B78DBB203F00203A4
:40614000002B18D03D4B5B78DAB2374B5B78DBB29A4208D13A4B1B78DBB243F00203DAB2374B1A7007E0364B1B78DBB223F00203DAB2334B1A70304B1B78DBB203F0040350
:40618000002B18D02D4B9B78DAB2274B9B78DBB29A4208D12A4B1B78DBB243F00403DAB2274B1A7007E0264B1B78DBB223F00403DAB2234B1A70204B1B78DBB203F00803F8
:4061C000002B18D01D4BDB78DAB2174BDB78DBB29A4208D11A4B1B78DBB243F00803DAB2174B1A7007E0164B1B78DBB223F00803DAB2134B1A70104B1B78DBB203F0200388
:40620000002B27D00D4BDB889AB2074BDB889BB29A4217D10A4B1B78DBB243F02003DAB2074B1A7016E000BF0481FF1F1F85EB51A48BFF1FD87E0100A18BFF1F1081FF1F67
:40624000A28BFF1F424B1B78DBB223F02003DAB23F4B1A703F4B1B78DBB203F01003002B18D03D4B1B79DAB23C4B1B79DBB29A4208D1374B1B78DBB243F01003DAB2344B95
:406280001A7007E0324B1B78DBB223F01003DAB22F4B1A702F4B1B78DBB203F04003002B18D02D4B1B7ADAB22C4B1B7ADBB29A4208D1274B1B78DBB243F04003DAB2244B4D
:4062C0001A7007E0224B1B78DBB223F04003DAB21F4B1A701F4B1B78DBB25BB2002B18DA1D4B5B899AB21D4B5B899BB29A4208D1174B1B78DBB263F07F03DAB2144B1A7064
:4063000007E0134B1B78DBB203F07F03DAB2104B1A70104B1B78BB71BB79002B13D00C4B1B78DAB2BB791340DBB2BA799A420AD10B4B1B78DBB243F00803DAB2084B1A7025
:40634000034B00221A7000BF0837BD4680BD00BFA28BFF1FA18BFF1F1081FF1F0481FF1FA48BFF1F80B500AF0020FCF7AFFF00BF80BD00BF80B500AF0120FCF7A7FF00BF35
:4063800080BD00BF80B500AF0220FCF79FFF00BF80BD00BF80B500AF0320FCF797FF00BF80BD00BF80B500AF0420FCF78FFF00BF80BD00BF80B500AF0520FCF787FF00BFBF
:4063C00080BD00BF80B500AF0620FCF77FFF00BF80BD00BF80B582B000AF0420FFF766F99E4B1B78DBB20133DAB29C4B1A709B4B1B78DBB23B2B40F2A682984B5B78DBB299
:406400000133DAB2954B5A70944B00221A70934B5B78DBB23B2B40F24682904B9B78DBB20133DAB28D4B9A708C4B00225A708B4B9B78DBB2172B40F2DD81884B1B79DBB2AD
:406440000133DAB2854B1A71844B00229A70834BDB889BB201339AB2804BDA807F4BDB78DBB20133DAB27D4BDA707C4BDB78DBB2072B02D9794B0122DA70794B1B78DBB29E
:4064800003F00203002B11D0744B1B7ADBB2022B0CD1724B1B79DBB21946704B1B7ADBB2013B704AD35C013399422AD86C4B1B78DBB203F00203002B0FD0684B1B7ADBB2EF
:4064C000022B0AD0654B1B79DAB2644B1B7ADBB2013B6449CB5C9A4213D8614B1B78DBB203F00203002B40F0F4805C4B1B79DAB25A4B1B7ADBB2013B5A49CB5C9A4240F2E8
:40650000E880564B1B7ADBB20133DAB2534B1A72524B01221A71514B1B7ADBB20C2B40F285804E4B5B899BB201339AB24B4B5A814A4B01221A72494B0122DA80474B5B8949
:406540009BB2494AA2FB0312D2094FF4C87101FB02F29B1A9BB2002B15D0404B5B899BB203F003039BB2002B16D13C4B5B899BB23D4AA2FB03125209642101FB02F29B1AA6
:406580009BB2002B08D0364B1B78DBB243F00203DAB2334B1A7007E0314B1B78DBB223F00203DAB22E4B1A70304B1B78DBB25BB2002B18DA2E4B5B899AB2284B5B899BB2E2
:4065C0009A4208D12B4B1B78DBB263F07F03DAB2284B1A7007E0274B1B78DBB203F07F03DAB2244B1A70214B1B78FB71FB79002B13D0204B1B78DAB2FB791340DBB2FA7941
:406600009A420AD1164B1B78DBB243F00803DAB2134B1A70174B00221A70174B1B78DBB203F04003002B01D0FFF7CCFE0F4B1B78DBB203F04003002B28D00D4B1B7ADAB2A2
:40664000064B1B7ADBB29A4218D10A4B1B78DBB243F04003DAB2074B1A7017E00481FF1FA48BFF1FD87E01001F85EB51A18BFF1F1081FF1FA28BFF1FA38BFF1F964B1B786D
:40668000DBB223F04003DAB2934B1A70934B1B78FB71FB79002B13D08F4B1B78DAB2FB791340DBB2FA799A420AD18D4B1B78DBB243F00803DAB28A4B1A70874B00221A708E
:4066C000884B1B78DBB203F02003002B01D0FFF771FE824B1B78DBB203F00803002B18D0814BDB78DAB2814BDB78DBB29A4208D1794B1B78DBB243F00803DAB2764B1A702D
:4067000007E0754B1B78DBB223F00803DAB2724B1A70724B1B78DBB203F02003002B18D0714BDB889AB2714BDB889BB29A4208D1694B1B78DBB243F02003DAB2664B1A701E
:4067400007E0654B1B78DBB223F02003DAB2624B1A70624B1B78DBB203F01003002B18D0614B1B79DAB2614B1B79DBB29A4208D1594B1B78DBB243F01003DAB2564B1A7074
:4067800007E0554B1B78DBB223F01003DAB2524B1A70524B1B78FB71FB79002B13D04E4B1B78DAB2FB791340DBB2FA799A420AD14B4B1B78DBB243F00803DAB2484B1A7068
:4067C000454B00221A70474B1B78DBB203F00803002B01D0FFF7DEFD444BDB78DBB2012B08D1404B1B78DBB203F01003002B01D0FFF7D8FD3D4B9B78DBB20B2B08D8384B33
:406800001B78DBB223F00403DAB2354B1A7007E0334B1B78DBB243F00403DAB2304B1A702E4B1B78DBB203F00403002B18D02E4B9B78DAB22D4B9B78DBB29A4208D1264B3C
:406840001B78DBB243F00403DAB2234B1A7007E0214B1B78DBB223F00403DAB21E4B1A701E4B1B78FB71FB79002B13D01A4B1B78DAB2FB791340DBB2FA799A420AD1184BDF
:406880001B78DBB243F00803DAB2154B1A70124B00221A70134B1B78DBB203F00403002B01D0FFF76FFD0D4B1B78DBB203F00203002B25D00C4B5B78DAB20C4B5B78DBB228
:4068C0009A4215D1044B1B78DBB243F00203DAB2014B1A7014E000BFA28BFF1FA18BFF1FA48BFF1FA38BFF1F1081FF1F0481FF1F384B1B78DBB223F00203DAB2354B1A7049
:40690000354B1B78FB71FB79002B13D0314B1B78DAB2FB791340DBB2FA799A420AD12F4B1B78DBB243F00803DAB22C4B1A70294B00221A702A4B1B78DBB203F00203002B00
:4069400001D0FFF717FD244B1B78DBB203F00103002B18D0234B1B78DAB2234B1B78DBB29A4208D11B4B1B78DBB243F00103DAB2184B1A7007E0174B1B78DBB223F001031D
:40698000DAB2144B1A70144B1B78FB71FB79002B13D0104B1B78DAB2FB791340DBB2FA799A420AD10D4B1B78DBB243F00803DAB20A4B1A70074B00221A70094B1B78DBB2F7
:4069C00003F00103002B01D0FFF7CCFC00BF0837BD4680BDA28BFF1FA18BFF1FA48BFF1FA38BFF1F1081FF1F0481FF1F80B485B000AF0346FB710A4B1B78DBB223F00103CF
:406A0000FB730749FB7903F00103DAB2FB7B1343DBB20B7000BF1437BD4680BC704700BFC051004080B485B000AF0346FB710B4B1B78DBB223F00203FB730849FB795B00D4
:406A4000DBB203F00203DAB2FB7B1343DBB20B7000BF1437BD4680BC704700BF0051004080B485B000AF0346FB710B4B1B78DBB223F00403FB730849FB799B00DBB203F036
:406A80000403DAB2FB7B1343DBB20B7000BF1437BD4680BC704700BF0051004080B485B000AF0346FB710B4B1B78DBB223F00803FB730849FB79DB00DBB203F00803DAB299
:406AC000FB7B1343DBB20B7000BF1437BD4680BC704700BF0051004080B500AF064B1B78002B04D100F00AF8034B01221A7000F015F800BF80BD00BFA58BFF1F80B400AFD4
:406B0000044B72221A70044B20221A7000BFBD4680BC7047866400408865004080B582B000AF01F051FF0346FB710C4A0B4B1B78DBB243F02003DBB21370094A084B1B784A
:406B4000DBB243F01003DBB21370FB79184601F03FFF00BF0837BD4680BD00BF966400409865004080B582B000AF01F02DFF0346FB710C4A0B4B1B78DBB223F02003DBB246
:406B80001370094A084B1B78DBB223F01003DBB21370FB79184601F01BFF00BF0837BD4680BD00BF966400409865004080B483B000AF0023FB710C4B1B78BB71BB7903F023
:406BC0002003002B09D0094B1B78FB71BB7903F01E03002B01D00023FB71FB7918460C37BD4680BC704700BF686500404665004080B582B000AF01F0E7FE0346FB710C4A8F
:406C00000B4B1B78DBB243F00103DBB21370084A074B1B78DBB223F00103DBB21370FB79184601F0D5FE00BF0837BD4680BD00BF9665004080B582B000AF786000F048F8C0
:406C4000786800F015F8072000F024F800F034F800BF0837BD4680BD80B500AF00F038F8024800F005F800BF80BD00BF2944000080B485B000AF7860054B1B68FB60FB68C6
:406C800040337A681A6000BF1437BD4680BC704708ED00E080B483B000AF0346FB71054AFB795B01DBB2137000BF0C37BD4680BC704700BF00E400E080B400AF034B012267
:406CC0001A6000BFBD4680BC704700BF00E100E080B400AF034B01221A6000BFBD4680BC704700BF80E100E080B485B000AF0346FB710B4B1B78DBB223F01003FB7308493A
:406D0000FB791B01DBB203F01003DAB2FB7B1343DBB20B7000BF1437BD4680BC704700BFC051004080B500AF00F032F800BF80BD80B500AF00F046F800BF80BD80B485B04F
:406D400000AF0346FB710B4B1B78DBB223F02003FB730849FB795B01DBB203F02003DAB2FB7B1343DBB20B7000BF1437BD4680BC704700BF2051004080B400AF00BFBD465C
:406D800080BC704780B400AF00BFBD4680BC704780B500AF094B1B78DBB203F01003002B14BF01230023DBB21A46054B1A7001F0CFFEFFF7E1FF00BF80BD00BF916400405A
:406DC0001C81FF1F80B500AFFFF7DCFF01F044FF034B1B78002B01D001F076FE00BF80BD1C81FF1F80B485B000AF0346FB710B4B1B78DBB223F01003FB730849FB791B013E
:406E0000DBB203F01003DAB2FB7B1343DBB20B7000BF1437BD4680BC704700BF3051004080B485B000AF0346FB71094B1B78DBB203F07F03FB730649FB79DB01DAB2FB7B1A
:406E40001343DBB20B7000BF1437BD4680BC70470051004080B485B000AF0346FB710B4B1B78DBB223F02003FB730849FB795B01DBB203F02003DAB2FB7B1343DBB20B7018
:406E800000BF1437BD4680BC704700BF3051004080B485B000AF0346FB710B4B1B78DBB223F01003FB730849FB791B01DBB203F01003DAB2FB7B1343DBB20B7000BF14379D
:406EC000BD4680BC704700BF2051004080B582B002AF414B01221A70404B00221A70102000F066FF102001F049F807211D20FDF7E3FF3B4B04221A703A4B00221A703A4B96
:406F000000221A70394A394B1B78DBB243F01803DBB21370364B00221A70364B00221A70354B00221A70354B0A221A70344B00221A70344B00221A70334B5B221A70334B0B
:406F40005E221A70324B00221A70324B14221A700123009310234FF4004247F60271032000F0A6FC0223009310234FF4004249F2DA01002000F09CFC0323009310234FF470
:406F8000004249F2DA01002000F092FC0423009310234FF4004249F2DA01002000F088FC1D4A0D4B1B78DBB2013B1C499B000B449B7813701A4A084B1B78DBB2013B17494C
:406FC00031F823301380044B1B78DBB2184600F067FA00BFBD4680BD1E81FF1FA88BFF1F96580040975800409E580040075B004093580040885B0040895B00408058004098
:40700000815800408358004088580040895800408D580040014E00400E4E0040B08BFF1F0C4E004080B582B000AF01F0CDFC0346FB71444B1B78BB71434A434B1B78DBB28A
:4070400043F00103DBB213703F4A3F4B1B78DBB243F01003DBB213703C4A3C4B1B78DBB243F00103DBB21370384A384B1B78DBB243F01003DBB21370354A354B1B78DBB232
:4070800043F00203DBB21370324A324B1B78DBB243F00203DBB213702F4A2F4B1B78DBB243F00303DBB213700320FDF7C9FE284A274B1B78DBB223F00203DBB21370254A52
:4070C000244B1B78DBB223F00203DBB21370234A224B1B78DBB243F00603DBB21370204B7A221A701F4A1F4B1B78DBB243F00103DBB213701C4A1C4B1B78DBB243F00103A4
:40710000DBB21370194A194B1B78DBB243F00203DBB21370164A164B1B78DBB243F00203DBB21370134B4FF000521A60124B4FF000521A60FB79184601F04AFC00BF08370F
:40714000BD4680BD1E81FF1FAA430040BA430040F8460040F9460040915800407758004082580040A1430040B1430040A2430040B243004080E200E000E100E080B500AFC0
:40718000084B1B78002B09D1074B1B78DBB2002B01D1FFF79BFE034B01221A70FFF742FF00BF80BDAA8BFF1FAB8BFF1F80B582B000AF01F009FC0346FB714D4A4C4B1B788F
:4071C000DBB223F00103DBB213704A4A494B1B78DBB243F00403DBB21370474A464B1B78DBB243F00203DBB21370444A434B1B78DBB243F00203DBB21370414A404B1B7892
:40720000DBB223F00303DBB213703E4A3D4B1B78DBB223F00803DBB213700320FDF710FE354A354B1B78DBB223F00203DBB21370324A324B1B78DBB223F00203DBB213708D
